S012000077697A6E657470696E672E73726563C3
S11300000C9434000C9451000C9451000C94510045
S11300100C9451000C9451000C9451000C94510018
S11300200C9451000C9451000C9451000C94510008
S11300300C9451000C9451000C9451000C945100F8
S11300400C9451000C9451000C9451000C945100E8
S11300500C9451000C9451000C9451000C945100D8
S11300600C9451000C94510011241FBECFEFD8E022
S1130070DEBFCDBF12E0A0E0B1E0EEE7FBE002C0DE
S113008005900D92A039B107D9F722E0A0E9B2E0BA
S113009001C01D92A639B207E1F70E949C020C949C
S11300A0BD050C940000CF93C82F8A3019F48DE05D
S11300B00E945300E0ECF0E0908195FFFDCFC093E7
S11300C0C60080E090E0CF910895CF93BC01E0ECAE
S11300D0F0E090819923ECF7C091C6008C2F0E9428
S11300E053008C2F90E0CF9108951092C50083E3C4
S11300F08093C40088E18093C10086E08093C200AD
S113010008958091C000882344F4A6ECB0E0E0ECAC
S1130110F0E08C9180818823E4F30895CF93DF93FA
S1130120C0E9D2E06A817B818BE190E00E94C20247
S11301306A817B818BE590E00E94C2026A817B81A7
S113014088E490E00E94C2026A817B818BE190E0A6
S11301500E94C2026A817B818BE590E00E94C20208
S11301606A817B818AE490E00E94C202DF91CF9190
S11301700895CF93DF93C0E9D2E06A817B818BE15C
S113018090E00E94C2026A817B818BE590E00E942C
S1130190C2026A817B8180E390E00E94C2026A818C
S11301A07B818DE690E00E94C202DF91CF91089599
S11301B02A9820EF2EBD0DB407FEFDCF9EBD0DB4D1
S11301C007FEFDCF8EBD0DB407FEFDCF6EBD0DB491
S11301D007FEFDCF2A9A08952A982FE02EBD0DB46C
S11301E007FEFDCF9EBD0DB407FEFDCF8EBD0DB441
S11301F007FEFDCF1EBC0DB407FEFDCF2A9A8EB5B7
S11302000895DF92EF92FF920F931F93CF93DF93A2
S113021060E880E090E00E94D8008FE99FE00197B9
S1130220F1F700C0000080E090E00E94EC001F9213
S11302308F938EE091E09F938F930E94FA021F9216
S113024081E08F931F921F921F92D8EADF931F922F
S1130250C0ECCF938FE191E09F938F930E94FA02B9
S113026060EC81E090E00E94D80068EA82E090E0CF
S11302700E94D80060E083E090E00E94D80061E032
S113028084E090E00E94D8008FE99FE00197F1F7A5
S113029000C0000084E090E00E94EC00F82E83E0AF
S11302A090E00E94EC00082F82E090E00E94EC00B5
S11302B0182F81E090E00E94EC001F92FF921F92A1
S11302C00F931F921F931F928F9384E491E09F9347
S11302D08F930E94FA021F928DEE8F931F9286E1F4
S11302E08F931F928CEF8F931F9286E38F931F92AD
S11302F088E98F931F9282E88F938FE591E09F9313
S11303008F930E94FA028DB79EB786960FB6F89423
S11303109EBF0FBE8DBF62E889E090E00E94D800C6
S113032068E98AE090E00E94D80066E38BE090E000
S11303300E94D8006CEF8CE090E00E94D80066E147
S11303408DE090E00E94D8006DEE8EE090E00E9477
S1130350D8008FE99FE00197F1F700C000008EE01C
S113036090E00E94EC00D82E8DE090E00E94EC001A
S1130370E82E8CE090E00E94EC00F82E8BE090E0F8
S11303800E94EC00082F8AE090E00E94EC00182FF5
S113039089E090E00E94EC001F92DF921F92EF929E
S11303A01F92FF921F920F931F921F931F928F937E
S11303B085E991E09F938F930E94FA021F921F9206
S11303C01F928FEF8F931F928F931F928F9382ECC4
S11303D091E09F938F930E94FA026FEF85E090E083
S11303E00E94D8006FEF86E090E00E94D8006FEF83
S11303F087E090E00E94D80060E088E090E00E94EE
S1130400D8008FE99FE00197F1F700C0000088E071
S113041090E00E94EC00F82E87E090E00E94EC004F
S1130420082F86E090E00E94EC00182F85E090E011
S11304300E94EC001F92FF921F920F931F921F9332
S11304401F928F9388EE91E09F938F930E94FA02FC
S11304508DB79EB782960FB6F8949EBF0FBE8DBF20
S11304601F9288EC8F931F921F921F92DF931F920B
S1130470CF9384E092E09F938F930E94FA0260EC02
S11304808FE090E00E94D80068EA80E190E00E944A
S1130490D80060E081E190E00E94D80068EC82E13D
S11304A090E00E94D8008FE99FE00197F1F700C027
S11304B0000082E190E00E94EC00182F81E190E0BE
S11304C00E94EC00D82F80E190E00E94EC00C82F3D
S11304D08FE090E00E94EC001F921F931F92DF9325
S11304E01F92CF931F928F9384E292E09F938F93F6
S11304F00E94FA0280E492E00E94100365E58AE11A
S113050090E00E94D80065E58BE190E00E94D8005D
S11305108EE592E00E9410038DB79EB744960FB605
S1130520F8949EBF0FBE8DBFDF91CF911F910F91A5
S1130530FF90EF90DF9008958FEF8AB91BB8E0E940
S1130540F2E080E091E091838083938382830E9430
S113055075000E94B9000E948E000E94B9000E949A
S11305608E000E9481008CE284B92A9A80E58CBDB9
S11305708DB581608DBD8DE792E00E9410030E94CD
S11305800101FFCF0F931F93CF93DF93FB012381CF
S113059021FD03C08FEF9FEF28C022FF16C04681C4
S11305A05781248135814217530744F4A081B181D6
S11305B09D012F5F3F4F318320838C9326813781A8
S11305C02F5F3F4F3783268310C0EB01092F182F6D
S11305D00084F185E02D0995892BE1F68E819F81B8
S11305E001969F838E83812F902FDF91CF911F914E
S11305F00F910895A0E0B0E0E0E0F3E00C949605DC
S1130600AE014B5F5F4FFA0161917191AF0180912F
S11306109202909193020E944003E2E00C94B2058E
S11306200F931F93CF93DF93E0919202F091930283
S1130630238121FF1BC08C01D0E0C0E0F80181912F
S11306408F016091920270919302DB011896ED91F3
S1130650FC911997882331F00995892B79F3DFEF01
S1130660CFEFECCF8AE00995892B19F08FEF9FEF3C
S113067002C08D2F9C2FDF91CF911F910F91089570
S1130680ACE0B0E0E6E4F3E00C9486057C016B0199
S11306908A01FC0117821682838181FFBDC1CE01CC
S11306A001964C01F7019381F60193FD859193FF27
S11306B081916F01882309F4ABC1853239F493FD2C
S11306C0859193FF81916F01853229F4B70190E000
S11306D00E94C202E7CF512C312C20E02032A0F43A
S11306E08B3269F030F4803259F0833269F420613E
S11306F02CC08D3239F0803339F4216026C0226059
S1130700246023C0286021C027FD27C030ED380FA6
S11307103A3078F426FF06C0FAE05F9E300D1124CB
S1130720532E13C08AE0389E300D1124332E2062DC
S11307300CC08E3221F426FD6BC1206406C08C36B9
S113074011F4206802C0883641F4F60193FD8591C6
S113075093FF81916F018111C1CF982F9F7D955493
S1130760933028F40C5F1F4FFFE3F9830DC08336E9
S113077031F0833771F0833509F05BC022C0F80192
S1130780808189830E5F1F4F44244394512C54016C
S113079015C03801F2E06F0E711CF801A080B18021
S11307A026FF03C0652D70E002C06FEF7FEFC50127
S11307B02C870E941D052C0183012C852F77222E66
S11307C017C03801F2E06F0E711CF801A080B180EF
S11307D026FF03C0652D70E002C06FEF7FEFC501F7
S11307E02C870E9412052C012C852068222E83015F
S11307F023FC1BC0832D90E048165906B0F4B701C2
S113080080E290E00E94C2023A94F4CFF50127FC02
S1130810859127FE81915F01B70190E00E94C20299
S113082031103A94F1E04F1A51084114510471F710
S1130830E5C0843611F0893639F5F80127FF07C081
S113084060817181828193810C5F1F4F08C0608138
S11308507181072E000C880B990B0E5F1F4F2F76AA
S1130860722E97FF09C090958095709561957F4F82
S11308708F4F9F4F2068722E2AE030E0A4010E941F
S11308802805A82EA81844C0853729F42F7EB22E37
S11308902AE030E025C0F22FF97FBF2E8F36C1F059
S11308A018F4883579F0B4C0803719F0883721F00E
S11308B0AFC02F2F2061B22EB4FE0DC08B2D8460EB
S11308C0B82E09C024FF0AC09F2F9660B92E06C017
S11308D028E030E005C020E130E002C020E132E051
S11308E0F801B7FE07C060817181828193810C5F3A
S11308F01F4F06C06081718180E090E00E5F1F4F42
S1130900A4010E942805A82EA818FB2DFF777F2E8E
S113091076FE0BC0372D3E7FA51450F474FE0AC03A
S113092072FC08C0372D3E7E05C0BA2C372D03C09B
S1130930BA2C01C0B52C34FF0DC0FE01EA0DF11D27
S11309408081803311F4397E09C032FF06C0B3942C
S1130950B39404C0832F867809F0B39433FD13C095
S113096030FF06C05A2CB31418F4530C5B18B32C84
S1130970B31468F4B70180E290E03C870E94C2029D
S1130980B3943C85F5CFB31410F43B1801C0312C5B
S113099034FF12C0B70180E390E03C870E94C2029A
S11309A03C8532FF17C031FD03C088E790E002C0E8
S11309B088E590E0B7010CC0832F867859F031FFA9
S11309C002C08BE201C080E237FD8DE2B70190E006
S11309D00E94C202A51438F4B70180E390E00E949B
S11309E0C2025A94F7CFAA94F401EA0DF11D808152
S11309F0B70190E00E94C202A110F5CF332009F4A0
S1130A0051CEB70180E290E00E94C2023A94F6CF40
S1130A10F7018681978102C08FEF9FEF2C96E2E168
S1130A200C94A205FC010590615070400110D8F7A8
S1130A30809590958E0F9F1F0895FC016150704022
S1130A4001900110D8F7809590958E0F9F1F0895FF
S1130A50FA01AA27283051F1203181F1E8946F93EB
S1130A606E7F6E5F7F4F8F4F9F4FAF4FB1E03ED091
S1130A70B4E03CD0670F781F891F9A1FA11D680F2F
S1130A80791F8A1F911DA11D6A0F711D811D911D62
S1130A90A11D20D009F468943F912AE0269F1124D7
S1130AA03019305D3193DEF6CF010895462F47703B
S1130AB0405D4193B3E00FD0C9F7F6CF462F4F7096
S1130AC0405D4A3318F0495D31FD4052419302D0F4
S1130AD0A9F7EACFB4E0A69597958795779567959A
S1130AE0BA95C9F700976105710508959B01AC019A
S1130AF00A2E06945795479537952795BA95C9F7C1
S1130B00620F731F841F951FA01D08952F923F929B
S1130B104F925F926F927F928F929F92AF92BF9209
S1130B20CF92DF92EF92FF920F931F93CF93DF93B5
S1130B30CDB7DEB7CA1BDB0B0FB6F894DEBF0FBE12
S1130B40CDBF09942A88398848885F846E847D845F
S1130B508C849B84AA84B984C884DF80EE80FD8061
S1130B600C811B81AA81B981CE0FD11D0FB6F894D7
S1110B70DEBF0FBECDBFED010895F894FFCF98
S1130B7E00000003000000005300650000005265F1
S1130B8E6164696E67204D523A2025640A0A005347
S1130B9E657474696E672047617465776179204165
S1130BAE6464726573732025642E25642E25642E69
S1130BBE25640A0052656164696E67204741523AA2
S1130BCE2025642E25642E25642E25640A0A0053DE
S1130BDE657474696E6720536F7572636520416422
S1130BEE647265737320252E32783A252E32783A44
S1130BFE252E32783A252E32783A252E32783A2519
S1130C0E2E32780A0052656164696E672053415230
S1130C1E3A20252E32783A252E32783A252E3278FD
S1130C2E3A252E32783A252E32783A252E32780A03
S1130C3E0A0053657474696E6720537562204D61A2
S1130C4E736B20416464726573732025642E25646E
S1130C5E2E25642E25640A0052656164696E672030
S1130C6E535542523A2025642E25642E25642E2592
S1130C7E640A0A0053657474696E672049502041F2
S1130C8E6464726573732025642E25642E25642E88
S1130C9E25640A0052656164696E67205349505297
S1130CAE3A2025642E25642E25642E25640A0A0016
S1130CBE53657474696E672057697A6E6574205231
S1130CCE4D535220616E6420544D53520A00446FAA
S1130CDE6E652057697A6E65742057353130302031
S1130CEE496E697469616C697A6564210057697A21
S1130CFE6E657420573531303020496E69740A00A0
S9030000FC
