S00F000053445F524541442E7372656303
S11300000C9434000C9451000C9451000C94510045
S11300100C9451000C9451000C9451000C94510018
S11300200C9451000C9451000C9451000C94510008
S11300300C9451000C9451000C9451000C945100F8
S11300400C9451000C9451000C9451000C945100E8
S11300500C9451000C9451000C9451000C945100D8
S11300600C9451000C94510011241FBECFEFD8E022
S1130070DEBFCDBF12E0A0E0B1E0E8ECF3E102C0E6
S113008005900D92A63BB107D9F722E0A6EBB2E0AA
S113009001C01D92A53FB207E1F70E9449040C94E8
S11300A0E2090C9400008F929F92AF92BF92CF927C
S11300B0DF92EF92FF920F931F93CF93DF936EEB38
S11300C071E080E090E00E946306C0E0D0E006EBBF
S11300D012E080E10E948006F8018481982F9D7FC0
S11300E0943041F08E3031F02196C430D10589F737
S11300F08FEF52C1249709F44CC18EE091E00E9425
S1130100350706EB12E00F2EF6ECCF2EF2E0DF2ED1
S1130110F02DE8010F2EF5E2EF2EF1E0FF2EF02D89
S113012089911F928F93FF92EF920E9418070F906C
S11301300F900F900F90CC15DD0591F78091BE02C2
S11301409091BF02A091C002B091C102C6EDD2E06D
S1130150AC01BD01032E39E0440F551F661F771F04
S11301603A95D1F7302D488359836A837B839F93D3
S11301708F9388E291E09F938F930E941807888160
S11301809981AA81BB81BC01CD01655F7F4F8F4FEF
S11301909F4F0E9463068DE00E9480068CE391E0ED
S11301A00E9435070F2EF3ECEF2EF2E0FF2EF02D18
S11301B00F900F900F900F90C5E2D1E0F80181915C
S11301C08F011F928F93DF93CF930E9418070F9094
S11301D00F900F900F900E151F0581F78AE090E0A5
S11301E00E942E07C6EBD2E089818F9388818F937A
S11301F088E491E09F938F930E9418078A811F924D
S11302008F9388E591E09F938F930E9418078C81C8
S11302108F938B818F9380E791E09F938F930E94BC
S113022018078D811F928F9385E891E09F938F9398
S11302300E9418078F818F938E818F9389E991E0B3
S11302409F938F930E9418078C858F938B858F9330
S11302508FEA91E09F938F930E9418078DB79EB702
S113026048960FB6F8949EBF0FBE8DBF88819981C2
S11302708115924009F08FC08E01FE012B8180E030
S113028090E0922F990FC6EDD2E0C880D980EA8021
S1130290FB8046015701880E991EA11CB11C88825F
S11302A09982AA82BB82458123853485A42FB0E03C
S11302B00E94C6066B017C010B2EB9E0CC0CDD1C40
S11302C0EE1CFF1CBA95D1F7B02DC80CD91CEA1C42
S11302D0FB1C1F924F9386E891E09F938F930E949B
S11302E01807F80126813781C901A0E0B0E0880F22
S11302F0991FAA1FBB1F880F991FAA1FBB1F880F16
S1130300991FAA1FBB1F880F991FAA1FBB1F880F05
S1130310991FAA1FBB1F8C0D9D1DAE1DBF1D8C8375
S11303209D83AE83BF8342814887A901440F551F33
S113033042955295507F5427407F542760E070E0E7
S11303404F87588B698B7A8B4FEF5FEFBA014B87DE
S11303505C876D877E879F938F93FF92EF92DF92E6
S1130360CF9289818F9388818F9384EC91E09F93BE
S11303708F930E941807C701B6010E9463068DB7C8
S11303809EB70E960FB6F8949EBF0FBE8DBF80E049
S113039003C08FEF01C08EEFDF91CF911F910F91BA
S11303A0FF90EF90DF90CF90BF90AF909F908F9091
S11303B00895CF92DF92EF92FF920F931F93CF9302
S11303C0C82F8091E5029091E602A091E702B091D6
S11303D0E802892B8A2B8B2B09F4B7C08091E102A8
S11303E09091E202A091E302B091E402892B8A2B5E
S11303F08B2B09F064C006ED12E0F801818592852B
S1130400A0E0B0E0880F991FAA1FBB1F4081518153
S1130410628173816C017D01C40ED51EE61EF71E38
S1130420C701B6010E94630682E00E948006A09183
S1130430B602B091B702F801B287A1872085422F96
S113044050E060E070E09A01AB01012E19E0220F48
S1130450331F441F551F1A95D1F7102D2387348756
S113046045875687AF3FFFEFBF0751F41092E5026F
S11304701092E6021092E7021092E80280E066C051
S113048012970E94D50606ED12E0F801C480D580CB
S1130490E680F7806C0D7D1D8E1D9F1D0E946306F6
S11304A0F80182858F9381858F938BEF91E09F93E1
S11304B08F930E9418070F900F900F900F908091C8
S11304C0E5029091E602A091E702B091E8024C2F78
S11304D050E060E070E084179507A607B70708F4BA
S11304E0C82F8091E1029091E202A091E302B091C1
S11304F0E4024C2F50E060E070E084179507A607F3
S1130500B70708F4C82F8C2F0E948006082F10E02C
S113051020E030E0E6EDF2E0478550896189728998
S1130520401B510B620B730B4787508B618B728B93
S11305304385548565857685401B510B620B730B8F
S1130540438754876587768701C080E0CF911F91E8
S11305500F91FF90EF90DF90CF9008954F925F92AC
S11305606F927F928F929F92AF92BF92CF92DF92BF
S1130570EF92FF920F931F93CF93DF937C018B0134
S11305801F936F93FF928F938CE092E09F938F93CE
S11305900E9418070F900F900F900F900F900F90DC
S11305A00F2EF6EB8F2EF2E09F2EF02DCEEBD2E045
S11305B00F2EF9E2AF2EF2E0BF2EF02D0F2EF7EB47
S11305C06F2EF2E07F2EF02D27018FEF481A580A84
S11305D00F2EF6EDCF2EF2E0DF2EF02D80E20E94FA
S11305E0D901803208F4A5C0F4018081882371F018
S11305F0DF93CF939F928F92BF92AF920E9418077E
S11306000F900F900F900F900F900F90F401908126
S1130610F7018081981371C0F301D20191918D91FA
S113062098136BC0EC17FD07C9F785C0F4019285D8
S1130630F8018281981361C0C6EBD2E08B8D8F9351
S11306408A8D8F9381E492E09F938F930E94180781
S1130650AA8DBB8DE6EDF2E0B287A1872085422FFB
S113066050E060E070E09A01AB01012E19E0220F26
S1130670331F441F551F1A95D1F7102D2387348734
S1130680458756870F900F900F900F9088818E3278
S113069021F08091C10284FF0DC0CC24CA94DC2CCB
S11306A07601C092E502D092E602E092E702F0926F
S11306B0E80210C0C090D202D090D302E090D402DD
S11306C0F090D502C092E502D092E602E092E702F1
S11306D0F092E80212970E94D5060091DA02109176
S11306E0DB022091DC023091DD02600F711F821F5A
S11306F0931F0E94630680E02CC0F60187859089D1
S1130700A189B289892B8A2B8B2B09F067CF1F9380
S11307100F93FF92EF928CE592E09F938F930E9448
S113072018070F900F900F900F900F900F908FEF6E
S113073010C08EEF0EC0F4019085F80180819813EB
S1130740DCCFF4019185F8018181981709F46ECF0B
S1130750D4CFDF91CF911F910F91FF90EF90DF9055
S1130760CF90BF90AF909F908F907F906F905F904D
S11307704F900895CF93C82F8A3019F48DE00E94CA
S1130780BA03E0ECF0E0908195FFFDCFC093C60082
S113079080E090E0CF910895CF93BC01E0ECF0E0CD
S11307A090819923ECF7C091C6008C2F0E94BA0364
S11307B08C2F90E0CF910895229A2A9A549A84B16A
S11307C0886284B92C9A81E58CBD08951092C50085
S11307D080E18093C40088E18093C10086E0809327
S11307E0C20008958091C000882344F4A6ECB0E0D0
S11307F0E0ECF0E08C9180818823E4F30895CF93BA
S1130800DF93CFEED2E06A817B818BE190E00E949E
S1130810E0066A817B818BE590E00E94E0066A81B4
S11308207B8188E490E00E94E0066A817B818BE111
S113083090E00E94E0066A817B818BE590E00E9453
S1130840E0066A817B818AE490E00E94E006DF9101
S1130850CF910895CF93DF93CFEED2E06A817B816D
S11308608BE190E00E94E0066A817B818BE590E059
S11308700E94E0066A817B8180E390E00E94E006AA
S11308806A817B818DE690E00E94E006DF91CF9142
S11308900895CF92DF92EF92FF920F931F93CF931D
S11308A0DF93EFEEF2E080E091E091838083938325
S11308B082830E94E6030E942A040E94FF030E948E
S11308C02A040E94FF030E94F2030E94DC0386E7CD
S11308D092E00E9435070E945F05C82F8823B9F073
S11308E08EE792E09F938F930E9418071F92CF93F5
S11308F089E892E09F938F930E9418070F900F90BE
S11309000F900F900F900F908FEF9FEF66C00E9493
S11309105300C82F8823B9F08DE892E09F938F93FA
S11309200E9418071F92CF9389E892E09F938F93B8
S11309300E9418070F900F900F900F900F900F9038
S11309408FEF9FEF4AC069E972E08DE992E00E945F
S1130950AE02C82F882351F186EA92E09F938F93C9
S11309600E9418071F92CF9389E892E09F938F9378
S11309700E9418070F900F900F900F900F900F90F8
S11309808FEF9FEF2AC080E20E94D901082F10E068
S113099001151105B9F0E6010A541D4F899190E043
S11309A00E942E07C017D107C9F70CC00F2EF6ED11
S11309B0EF2EF2E0FF2EF02D0F2EF6EBCF2EF2E00D
S11309C0DF2EF02DF70187859089A189B289892BC3
S11309D08A2B8B2BC1F680E090E0DF91CF911F91A1
S11309E00F91FF90EF90DF90CF9008958EBD0DB4DE
S11309F007FEFDCF8EB50895CF92DF92EF92FF925E
S1130A000F931F93CF93DF93CDB7DEB7A0970FB6A5
S1130A10F894DEBF0FBECDBFF42EE52ED62EC72E22
S1130A20122F5C980E94F6048C2D0E94F6048D2DE2
S1130A300E94F6048E2D0E94F6048F2D0E94F60467
S1130A40812F0E94F604002301F1CE0101967C015E
S1130A500150C02ED12C9FEFC91AD90ACE0CDF1C2D
S1130A6087018FEF0E94F604F80181938F01EC1542
S1130A70FD05B9F70DC0F70191917F019F3F09F082
S1130A80192FEC14FD04B9F706C05C9A1FEF03C0DC
S1130A905C9A1FEFF0CF8AE090E00E942E07812F2E
S1130AA0A0960FB6F894DEBF0FBECDBFDF91CF91F5
S1130AB01F910F91FF90EF90DF90CF9008950F93C7
S1130AC0CF93DF935C9ACAE0D0E08FEF0E94F604E4
S1130AD02197D9F7C0E0D0E00AC08FE39CE90197E1
S1130AE0F1F700C000002196C034D105B9F008E048
S1130AF025E940E050E0BA0180E40E94FC04813022
S1130B0061F73AC08FE39CE90197F1F700C0000058
S1130B102196CA30D10521F48EEF31C0C0E0D0E077
S1130B2008E02FEF40E050E0BA0181E40E94FC04A9
S1130B308111E8CF2A97E1F02FEF40E052E060E026
S1130B4070E080E50E94FC041092EE021092ED0227
S1130B501092E9021092EA021092EB021092EC0257
S1130B608FE39CE90197F1F700C0000080E007C023
S1130B708EEF05C08FEF03C02A97E1F3CFCFDF914B
S1130B80CF910F9108954F925F926F927F92AF929F
S1130B90BF92CF92DF92EF92FF920F931F93CF9366
S1130BA0DF932B013C017A01B22EA32E5C9881E5E0
S1130BB00E94F604D301C201072E7FE0B695A795E3
S1130BC0979587957A95D1F7702D0E94F604D301F5
S1130BD0C201689416F8B695A795979587951694CB
S1130BE0D1F70E94F604842D880F0E94F60480E059
S1130BF00E94F6048FEF0E94F604C4E6D0E002C01F
S1130C00219771F08FEF0E94F6048111F9CFC4E6A9
S1130C10D0E008C0219731F4E114F10449F43EC056
S1130C20C4E6D0E08FEF0E94F6048E3F99F7F4CF2C
S1130C30C0E0D0E08FEF0E94F6042196CE15DF05C8
S1130C40C9F70115110579F0CB2CDA2CC0E0D0E0FE
S1130C508FEF0E94F604F60181936F012196C0176D
S1130C60D107B0F302C0C0E0D0E0CE0DDF1DC11546
S1130C70F2E0DF0740F48FEF0E94F6042196C115DD
S1130C8082E0D807C0F38FEF0E94F6048FEF0E9432
S1130C90F6048FEF0E94F6045C9A06C00115110554
S1130CA099F6C0E0D0E0E7CFDF91CF911F910F918B
S1130CB0FF90EF90DF90CF90BF90AF907F906F90B8
S1130CC05F904F9008950F931F938B019C010F2EFB
S1130CD0F9E03695279517950795FA95D1F7F02DF4
S1130CE00093E9021093EA022093EB023093EC02A2
S1130CF071707093EE026093ED021F910F9108954D
S1130D00EF92FF920F931F93CF93C82FE82EF12CED
S1130D104091ED025091EE026091E9027091EA0275
S1130D208091EB029091EC02870126EB32E00E9465
S1130D30C3052091ED023091EE02020F131F01153D
S1130D4082E0180729F01093EE020093ED0217C019
S1130D501092EE021092ED028091E9029091EA0263
S1130D60A091EB02B091EC020196A11DB11D8093FC
S1130D70E9029093EA02A093EB02B093EC028C2F69
S1130D80CF911F910F91FF90EF900895A29FB00112
S1130D90B39FC001A39F700D811D1124911DB29FAB
S1130DA0700D811D1124911D08950E94C606A59FF2
S1130DB0900DB49F900DA49F800D911D1124089552
S1130DC00F931F93CF93DF93FB01238121FD03C076
S1130DD08FEF9FEF28C022FF16C0468157812481E0
S1130DE035814217530744F4A081B1819D012F5FDF
S1130DF03F4F318320838C93268137812F5F3F4F70
S1130E003783268310C0EB01092F182F0084F18546
S1130E10E02D0995892BE1F68E819F8101969F83B0
S1130E208E83812F902FDF91CF911F910F91089581
S1130E30A0E0B0E0EEE1F7E00C94BB09AE014B5F3B
S1130E405F4FFA0161917191AF018091F10290912C
S1130E50F2020E946507E2E00C94D7096091F10266
S1130E607091F2020E94E00608950F931F93CF93AE
S1130E70DF93E091F102F091F202238121FF1BC084
S1130E808C01D0E0C0E0F80181918F016091F10202
S1130E907091F202DB011896ED91FC911997882369
S1130EA031F00995892B79F3DFEFCFEFECCF8AE0AE
S1130EB00995892B19F08FEF9FEF02C08D2F9C2F7E
S1130EC0DF91CF911F910F910895ACE0B0E0EBE674
S1130ED0F7E00C94AB097C016B018A01FC011782D9
S1130EE01682838181FFBDC1CE0101964C01F701B9
S1130EF09381F60193FD859193FF81916F0188237E
S1130F0009F4ABC1853239F493FD859193FF819146
S1130F106F01853229F4B70190E00E94E006E7CF23
S1130F20512C312C20E02032A0F48B3269F030F4C3
S1130F30803259F0833269F420612CC08D3239F04B
S1130F40803339F4216026C02260246023C02860E5
S1130F5021C027FD27C030ED380F3A3078F426FF42
S1130F6006C0FAE05F9E300D1124532E13C08AE0B0
S1130F70389E300D1124332E20620CC08E3221F4A1
S1130F8026FD6BC1206406C08C3611F4206802C0B3
S1130F90883641F4F60193FD859193FF81916F01A9
S1130FA08111C1CF982F9F7D9554933028F40C5F05
S1130FB01F4FFFE3F9830DC0833631F0833771F09F
S1130FC0833509F05BC022C0F801808189830E5FFC
S1130FD01F4F44244394512C540115C03801F2E0AE
S1130FE06F0E711CF801A080B18026FF03C0652D2F
S1130FF070E002C06FEF7FEFC5012C870E944209A9
S11310002C0183012C852F77222E17C03801F2E0A2
S11310106F0E711CF801A080B18026FF03C0652DFE
S113102070E002C06FEF7FEFC5012C870E94370983
S11310302C012C852068222E830123FC1BC0832DC8
S113104090E048165906B0F4B70180E290E00E949F
S1131050E0063A94F4CFF50127FC859127FE8191AF
S11310605F01B70190E00E94E00631103A94F1E08C
S11310704F1A51084114510471F7E5C0843611F038
S1131080893639F5F80127FF07C0608171818281B3
S113109093810C5F1F4F08C060817181072E000C83
S11310A0880B990B0E5F1F4F2F76722E97FF09C086
S11310B090958095709561957F4F8F4F9F4F2068D5
S11310C0722E2AE030E0A4010E944D09A82EA8182F
S11310D044C0853729F42F7EB22E2AE030E025C0A3
S11310E0F22FF97FBF2E8F36C1F018F4883579F0CE
S11310F0B4C0803719F0883721F0AFC02F2F20619A
S1131100B22EB4FE0DC08B2D8460B82E09C024FF0E
S11311100AC09F2F9660B92E06C028E030E005C0B3
S113112020E130E002C020E132E0F801B7FE07C060
S113113060817181828193810C5F1F4F06C0608141
S1131140718180E090E00E5F1F4FA4010E944D0961
S1131150A82EA818FB2DFF777F2E76FE0BC0372D07
S11311603E7FA51450F474FE0AC072FC08C0372DEB
S11311703E7E05C0BA2C372D03C0BA2C01C0B52C55
S113118034FF0DC0FE01EA0DF11D8081803311F49E
S1131190397E09C032FF06C0B394B39404C0832FD0
S11311A0867809F0B39433FD13C030FF06C05A2C7F
S11311B0B31418F4530C5B18B32CB31468F4B701CC
S11311C080E290E03C870E94E006B3943C85F5CF32
S11311D0B31410F43B1801C0312C34FF12C0B70112
S11311E080E390E03C870E94E0063C8532FF17C014
S11311F031FD03C088E790E002C088E590E0B701C4
S11312000CC0832F867859F031FF02C08BE201C0F5
S113121080E237FD8DE2B70190E00E94E006A5145C
S113122038F4B70180E390E00E94E0065A94F7CFC7
S1131230AA94F401EA0DF11D8081B70190E00E94A7
S1131240E006A110F5CF332009F451CEB70180E2B6
S113125090E00E94E0063A94F6CFF70186819781E8
S113126002C08FEF9FEF2C96E2E10C94C709FC01BA
S11312700590615070400110D8F7809590958E0FBD
S11312809F1F0895FC016150704001900110D8F730
S1131290809590958E0F9F1F0895FA01AA272830F4
S11312A051F1203181F1E8946F936E7F6E5F7F4F2F
S11312B08F4F9F4FAF4FB1E03ED0B4E03CD0670FAB
S11312C0781F891F9A1FA11D680F791F8A1F911DFE
S11312D0A11D6A0F711D811D911DA11D20D009F44E
S11312E068943F912AE0269F11243019305D319390
S11312F0DEF6CF010895462F4770405D4193B3E079
S11313000FD0C9F7F6CF462F4F70405D4A3318F01F
S1131310495D31FD4052419302D0A9F7EACFB4E0D0
S1131320A6959795879577956795BA95C9F7009788
S11313306105710508959B01AC010A2E0694579529
S1131340479537952795BA95C9F7620F731F841F80
S1131350951FA01D08952F923F924F925F926F9216
S11313607F928F929F92AF92BF92CF92DF92EF9231
S1131370FF920F931F93CF93DF93CDB7DEB7CA1BB2
S1131380DB0B0FB6F894DEBF0FBECDBF09942A88DD
S1131390398848885F846E847D848C849B84AA8485
S11313A0B984C884DF80EE80FD800C811B81AA8112
S11313B0B981CE0FD11D0FB6F894DEBF0FBECDBFDD
S10B13C0ED010895F894FFCF3C
S11313C80000000300000000BA03CC0300005041F1
S11313D852544954494F4E205441424C4520425599
S11313E846464552002558000A53746172742053C6
S11313F86563746F7220252330385800424F4F5468
S11314082042554646455200536563746F722073F3
S1131418697A652025640A00536563746F72735F83
S11314287065725F636C75737465722025640A0055
S113143872657365727665645F736563746F7273DE
S11314482025640A006E6E756D6265725F6F665F53
S1131458666174732025640A006E726F6F745F642A
S113146869725F656E74726965732025640A006623
S113147861745F73697A655F736563746F727320EF
S113148825640A004641542073746172742061749F
S11314982025233038582C20726F6F7420646972A9
S11314A820617420252330386C582C2064617461C1
S11314B82061742025233038580A004E657874203A
S11314C8636C75737465722025640A0054727969B3
S11314D86E6720746F206F70656E2066696C652076
S11314E85B25732E25735D0A00466F756E6420664E
S11314F8696C65205B252E38732E252E33735D0A9F
S11315080046696C6520666F756E6420617420639B
S11315186C7573746572202564210A0046696C65CC
S1131528206E6F7420666F756E643A205B25732E87
S113153825735D210A000A53746172740D000D0A43
S11315485344206572723A2000252358000D0A4638
S11315584154206572723A20005458540048414D51
S11315684C45542020000D0A4F70656E2065727238
S10915786F723A2000002E
S9030000FC
