S011000077697A6E65747765622E7372656334
S11300000C94C0010C94DD010C94DD010C94DD0111
S11300100C94DD010C94DD010C94DD010C94DD01E4
S11300200C94DD010C94DD010C94DD010C94DD01D4
S11300300C94DD010C94DD010C94DD010C94DD01C4
S11300400C9420080C94DD010C94DD010C94DD016A
S11300500C94DD010C94DD010C94DD010C94DD01A4
S11300600C94DD010C94DD012A0B1D0B1D0B1D0BE3
S11300701D0B1D0B1D0B1D0B1D0B1D0B1D0B1D0B3C
S11300801D0B1D0B1D0B1D0B1D0B1D0B1D0B1D0B2C
S113009018111D0B1D0B400B1D111D0B2C113711BD
S11300A046115711534F434B5F4C4153545F4143E7
S11300B04B0A00534F434B5F434C4F53455F5741EB
S11300C049540A00534F434B5F54494D455F5741D0
S11300D049540A00534F434B5F434C4F53494E47D7
S11300E00A00534F434B5F46494E5F574149540AF8
S11300F0007D5D7D0022002270617373776F7264EE
S1130100223A2200222C002275736572223A2200C0
S1130110222C00227375626D61736B5F34223A2264
S113012000222C00227375626D61736B5F33223A77
S11301302200222C00227375626D61736B5F322280
S11301403A2200222C00227375626D61736B5F3159
S1130150223A2200222C0022676174657761795F5C
S113016034223A2200222C00226761746577617977
S11301705F33223A2200222C002267617465776182
S1130180795F32223A2200222C002267617465775B
S113019061795F31223A2200222C002269705F3497
S11301A0223A2200222C002269705F33223A220074
S11301B0222C002269705F32223A2200222C007B1A
S11301C02269705F31223A22007B2273657474695C
S11301D06E6773223A5B005D7D00227D007B227492
S11301E0656D7065726174757265223A22007B22B6
S11301F073797374656D223A224F4646227D2C0032
S11302007B2273797374656D223A224F4E227D2CC2
S1130210007B2273797374656D223A224F4646221D
S11302207D2C007B2273797374656D223A224F4EC4
S1130230227D2C007B2273797374656D223A224FE0
S11302404646227D2C007B2273797374656D223AB5
S1130250224F4E227D2C007B2273797374656E735A
S1130260223A5B00485454502F312E312032303022
S1130270204F4B200D0A436F6E6E656374696F6E79
S11302803A206B6565702D616C6976652C20636C12
S11302906F7365200D0A0D0A00485454502F312EF7
S11302A03120323034204E6F20436F6E74656E748B
S11302B0200D0A436F6E6E656374696F6E3A206B2E
S11302C06565702D616C697665200D0A0D0A000A5A
S11302D070617373776F7264202573200A000A7546
S11302E0736572202573000A7375626D61736B34D4
S11302F0202564000A7375626D61736B3320256475
S1130300000A7375626D61736B32202564000A7391
S113031075626D61736B31202564000A67617465D1
S113032077617934202564000A676174657761799F
S113033033202564000A676174657761793220256A
S113034064000A6761746577617931202564000A65
S1130350495034202564000A495033202564000A9A
S1130360495032202564000A495031202564005345
S11303704F434B4554204C495354454E210A0000E9
S113038011241FBECFEFD8E0DEBFCDBF14E0A0E044
S1130390B1E0E6E0F4E302C005900D92A436B107A3
S11303A0D9F727E0A4E6B4E001C01D92A33EB2074A
S11303B0E1F70E946F0A0C94011A0C9400002A9829
S11303C020EF2EBD0DB407FEFDCF9EBD0DB407FE7C
S11303D0FDCF8EBD0DB407FEFDCF6EBD0DB407FE7F
S11303E0FDCF2A9A08952A982FE02EBD0DB407FE5A
S11303F0FDCF9EBD0DB407FEFDCF8EBD0DB407FE2F
S1130400FDCF1EBC0DB407FEFDCF2A9A8EB508950C
S11304108F929F92AF92BF92CF92DF92EF92FF9210
S11304200F931F93CF93DF93EC01DB01FA01F88064
S113043009811A81CB818C9011969C901197129608
S1130440AC9012971396BC90C080D180E280D38187
S113045060E880E090E00E94DF01682D81E090E098
S11304600E94DF01692D82E090E00E94DF016A2D85
S113047083E090E00E94DF016B2D84E090E00E9415
S1130480DF0160E089E090E00E94DF0168E08AE03B
S113049090E00E94DF016CED8BE090E00E94DF01B0
S11304A061E08CE090E00E94DF0163E08DE090E089
S11304B00E94DF0163E08EE090E00E94DF016C2D7A
S11304C085E090E00E94DF016D2D86E090E00E94BF
S11304D0DF016E2D87E090E00E94DF016D2F88E040
S11304E090E00E94DF016F2D8FE090E00E94DF0119
S11304F0602F80E190E00E94DF01612F81E190E0B4
S11305000E94DF016C2F82E190E00E94DF0165E030
S11305108AE190E00E94DF0165E08BE190E00E94B7
S1130520DF01DF91CF911F910F91FF90EF90DF904A
S1130530CF90BF90AF909F908F90089581110BC082
S113054060E181E094E00E94DF0181E094E00E9498
S1130550F3018111FACF089581110BC068E081E0A5
S113056094E00E94DF0181E094E00E94F301811194
S1130570FACF08951F93CF93DF93811130C0D52F05
S1130580C42F162F83E094E00E94F301811102C06E
S11305900E949E02612F80E094E00E94DF016D2F93
S11305A084E094E00E94DF016C2F85E094E00E94D7
S11305B0DF0161E081E094E00E94DF0181E094E0EA
S11305C00E94F3018111FACF83E094E00E94F301C9
S11305D0833139F080E00E949E0280E003C080E015
S11305E001C081E0DF91CF911F91089581111CC05A
S11305F083E094E00E94F3018331C1F462E081E07E
S113060094E00E94DF0181E094E00E94F3018111F3
S1130610FACF83E094E00E94F301843149F080E052
S11306200E949E0280E0089580E0089580E008958D
S113063081E00895AF92BF92CF92DF92EF92FF9242
S11306400F931F93CF93DF937B018A01452B09F40A
S113065069C081116AC080E294E00E94F301C82F4E
S1130660D0E0DC2FCC2781E294E00E94F301C80F94
S1130670D11DC017D10708F46CC05AC060E484E2ED
S113068094E00E94DF0160E085E294E00E94DF01D3
S11306908FE99FE00197F1F700C0000080E294E049
S11306A00E94F30190E0D82FCC2781E294E00E94CD
S11306B0F301FE01E80FF11DCF01F1E0CF1AD108DB
S11306C021F480E00E94AC026AC080179107B0F266
S11306D02FC02197C6019770F70161917F01905C4B
S11306E00E94DF01FFEFCF1ADF0A209791F70A0D6E
S11306F01B1D612F84E294E00E94DF01602F85E2DC
S113070094E00E94DF0160E281E094E00E94DF0156
S113071081E094E00E94F3018111FACFCC24C394C8
S1130720D12C3DC0C12CD12C3AC0C12CD12C37C006
S113073084E294E00E94F301A82E85E294E00E94F2
S1130740F301B12CBA2CAA24A80EB11C6501E8014E
S1130750C0CF60E484E294E00E94DF0160E085E2BF
S113076094E00E94DF018FE99FE00197F1F700C058
S1130770000080E294E00E94F30190E0D82FCC279F
S113078081E294E00E94F301FE01E80FF11DCF0124
S11307900F2EF9EECF2EF3E0DF2EF02D96CFC6010B
S11307A0DF91CF911F910F91FF90EF90DF90CF9049
S11307B0BF90AF9008958F929F92AF92BF92CF92C5
S11307C0DF92EF92FF920F931F93CF93DF935B011E
S11307D06A014115510509F446C0811144C04138EC
S11307E0524078F10F2EFEE7CF2EF2E0DF2EF02DEF
S11307F028C02197C4019770905A0E94F301F80110
S113080081938F01FFEF8F1A9F0A209791F7EC0CC9
S1130810FD1CF501EC0DFD1D10826F2D88E294E0A6
S11308200E94DF016E2D89E294E00E94DF0160E402
S113083081E094E00E94DF018AE18A95F1F700C02B
S113084012C088E294E00E94F301E82E89E294E069
S11308500E94F301F12CFE2CEE24E80EF11C47015A
S1130860E6018501C6CF81E090E0DF91CF911F9131
S11308700F91FF90EF90DF90CF90BF90AF909F903B
S11308808F900895CF9386E294E00E94F301C82FDD
S113089087E294E00E94F3012C2F30E0322F2227CC
S11308A0A901480F511DCA01CF910895CF92DF923B
S11308B0EF92FF920F931F93CF93DF93FB0101906D
S11308C00020E9F731978F01061B170BFC012081EB
S11308D02223C1F07B01EC01C12CD12CA801B7016A
S11308E0CE010E947416892B19F48C2D9D2D0CC0F9
S11308F0FFEFCF1ADF0A219688818111EFCF8FEFA6
S11309009FEF02C08FEF9FEFDF91CF911F910F9167
S1130910FF90EF90DF90CF9008958F929F92AF92C7
S1130920BF92CF92DF92EF92FF920F931F93CF93D8
S1130930DF936EEB71E080E090E00E94D312C0E0A0
S1130940D0E007E714E080E10E94F012F80184810E
S1130950982F9D7F943041F08E3031F02196C43031
S1130960D10589F78FEF53C1249709F44DC185E16F
S113097091E00E94231707E714E00F2EF7E8CF2E2B
S1130980F4E0DF2EF02DE8010F2EFCE2EF2EF1E073
S1130990FF2EF02D89911F928F93FF92EF920E9468
S11309A0E0160F900F900F900F90CC15DD0591F786
S11309B080917F0490918004A0918104B09182047D
S11309C0C7EFD4E0AC01BD01032E39E0440F551F3D
S11309D0661F771F3A95D1F7302D488359836A8370
S11309E07B839F938F938FE291E09F938F930E94D9
S11309F0E01688819981AA81BB81BC01CD01655F24
S1130A007F4F8F4F9F4F0E94D3128DE00E94F012B0
S1130A1083E491E00E9423170F2EF4E8EF2EF4E014
S1130A20FF2EF02D0F900F900F900F90CCE2D1E09D
S1130A30F80181918F011F928F93DF93CF930E94CE
S1130A40E0160F900F900F900F900E151F0581F771
S1130A508AE090E00E941C17C7E7D4E089818F9355
S1130A6088818F938FE491E09F938F930E94E01687
S1130A708A811F928F938FE591E09F938F930E94B9
S1130A80E0168C818F938B818F9387E791E09F93FE
S1130A908F930E94E0168D811F928F938CE891E0D2
S1130AA09F938F930E94E0168F818F938E818F93F3
S1130AB080EA91E09F938F930E94E0168C858F9338
S1130AC08B858F9386EB91E09F938F930E94E01622
S1130AD08DB79EB748960FB6F8949EBF0FBE8DBFD4
S1130AE0888199818115924009F090C0C7EFD4E0C4
S1130AF007E714E0F801238180E090E0922F990F3A
S1130B00C880D980EA80FB8046015701880E991E6F
S1130B10A11CB11C88829982AA82BB82458123854B
S1130B203485A42FB0E00E94F7146B017C010B2ED6
S1130B30B9E0CC0CDD1CEE1CFF1CBA95D1F7B02D2E
S1130B40C80CD91CEA1CFB1C1F924F938DE891E042
S1130B509F938F930E94E016F80126813781C90183
S1130B60A0E0B0E0880F991FAA1FBB1F880F991F30
S1130B70AA1FBB1F880F991FAA1FBB1F880F991F8D
S1130B80AA1FBB1F880F991FAA1FBB1F8C0D9D1D79
S1130B90AE1DBF1D8C839D83AE83BF834281488776
S1130BA0A901440F551F42955295507F5427407F09
S1130BB0542760E070E04F87588B698B7A8B4FEF36
S1130BC05FEFBA014B875C876D877E879F938F9316
S1130BD0FF92EF92DF92CF9289818F9388818F93D6
S1130BE08BEC91E09F938F930E94E016C701B601AE
S1130BF00E94D3128DB79EB70E960FB6F8949EBF7F
S1130C000FBE8DBF80E003C08FEF01C08EEFDF9178
S1130C10CF911F910F91FF90EF90DF90CF90BF90F5
S1130C20AF909F908F900895CF92DF92EF92FF92B2
S1130C300F931F93CF93C82F8091060590910705BA
S1130C40A0910805B0910905892B8A2B8B2B09F4F7
S1130C50B7C08091020590910305A0910405B0915D
S1130C600505892B8A2B8B2B09F064C007EF14E050
S1130C70F80181859285A0E0B0E0880F991FAA1F32
S1130C80BB1F40815181628173816C017D01C40E5F
S1130C90D51EE61EF71EC701B6010E94D31282E0DC
S1130CA00E94F012A0917704B0917804F801B28701
S1130CB0A1872085422F50E060E070E09A01AB01EB
S1130CC0012E19E0220F331F441F551F1A95D1F727
S1130CD0102D2387348745875687AF3FFFEFBF0723
S1130CE051F410920605109207051092080510920F
S1130CF0090580E066C007EF14E012970E9406150C
S1130D00F801C480D580E680F7806C0D7D1D8E1DB2
S1130D109F1D0E94D312F80182858F9381858F9342
S1130D2082E092E09F938F930E94E0160F900F90C1
S1130D300F900F908091060590910705A0910805EA
S1130D40B09109054C2F50E060E070E084179507DE
S1130D50A607B70708F4C82F8091020590910305F0
S1130D60A0910405B09105054C2F50E060E070E0BF
S1130D7084179507A607B70708F4C82F8C2F0E947D
S1130D80F012082F10E020E030E0E7EFF4E04785B0
S1130D90508961897289401B510B620B730B478721
S1130DA0508B618B728B4385548565857685401B9A
S1130DB0510B620B730B438754876587768701C099
S1130DC080E0CF911F910F91FF90EF90DF90CF9033
S1130DD008958F929F92AF92BF92CF92DF92EF923B
S1130DE0FF920F931F93CF93DF938C017B01FF92AC
S1130DF06F931F938F9383E192E09F938F930E944D
S1130E00E0160F900F900F900F900F900F900F2EF1
S1130E10F7E78F2EF4E09F2EF02DCFE7D4E00F2ECE
S1130E20F0E3AF2EF2E0BF2EF02D0F2EF7EFCF2E12
S1130E30F4E0DF2EF02D80E20E941406803208F4E4
S1130E40A7C0F4018081882371F0DF93CF939F9230
S1130E508F92BF92AF920E94E0160F900F900F9066
S1130E600F900F900F90F4019081F80180819813F6
S1130E7073C0E8E7F4E0D801119691918D9198132D
S1130E806BC0EC17FD07C9F785C0F4019285F70123
S1130E908281981361C0C7E7D4E08B8D8F938A8DCC
S1130EA08F9388E492E09F938F930E94E016AA8D1B
S1130EB0BB8DE7EFF4E0B287A1872085422F50E095
S1130EC060E070E09A01AB01012E19E0220F331F9C
S1130ED0441F551F1A95D1F7102D23873487458752
S1130EE056870F900F900F900F9088818E3221F0CB
S1130EF08091820484FF0DC0CC24CA94DC2C76013A
S1130F00C0920605D0920705E0920805F092090503
S1130F1010C0C0909304D0909404E0909504F09095
S1130F209604C0920605D0920705E0920805F09257
S1130F30090512970E9406150091FB041091FC0408
S1130F402091FD043091FE04600F711F821F931FD6
S1130F500E94D31280E02BC0F60187859089A18975
S1130F60B289892B8A2B8B2B09F065CFFF92EF92E4
S1130F701F930F9383E692E09F938F930E94E01652
S1130F800F900F900F900F900F900F908FEF0FC056
S1130F908EEF0DC0F4019085F70180819813DCCFAA
S1130FA09181F4018185981709F46FCFD5CFDF9132
S1130FB0CF911F910F91FF90EF90DF90CF90BF9052
S1130FC0AF909F908F900895F999FECF90E092BDD5
S1130FD081BD60BDFA9AF99A0895F999FECF90E01F
S1130FE092BD81BDF89A80B508958CE284B92A9A9D
S1130FF0549A5C9A81E58CBD08958CB58F7B8CBD29
S11310008FE99FE00197F1F700C000008CB58E7F57
S11310108CBD8CB580648CBD8DB581608DBD8FE930
S11310209FE00197F1F700C00000089514BC85E02B
S113103085BD84E986BD81E080936E00789408952F
S11310401F920F920FB60F9211242F933F934F9339
S11310505F936F937F938F939F93AF93BF93EF931C
S1131060FF93809106018F5F80930601843130F1F4
S1131070F89480E480937C00EAE7F0E08081806467
S11310808083808186FDFDCF609178007091790026
S1131090072E000C880B990B0E9465142AE037ED8B
S11310A043E251E40E94BB130E942D147093510536
S11310B06093500581E080930601789484E986BDAD
S11310C0FF91EF91BF91AF919F918F917F916F911C
S11310D05F914F913F912F910F900FBE0F901F90F2
S11310E018950F931F93CF93DF93EC018B010E940C
S11310F08D04B801CE010E94E90680910605909105
S11311000705A0910805B0910905892B8A2B8B2B23
S1131110A9F0C7EFD4E080E80E941406482F50E0FD
S113112067E774E08091D2070E941A038F8598893B
S1131130A989BA89892B8A2B8B2B69F7DF91CF91E7
S11311401F910F910895009719F0019741F00895A8
S11311506DE772E081E892E00E94710808956DE7FE
S113116072E08AE892E00E947108089560EC80E0E1
S11311700E94E40768EA81E00E94E40760E082E0FC
S11311800E94E40768EC83E00E94E40760EC84E0DA
S11311900E94E40768EA85E00E94E40760E086E0D4
S11311A00E94E40761E087E00E94E4076FEF88E0B3
S11311B00E94E4076FEF89E00E94E4076FEF8AE082
S11311C00E94E40760E08BE00E94E40761E68CE0A3
S11311D00E94E40764E68DE00E94E4076DE68EE079
S11311E00E94E40769E68FE00E94E4076EE680E16E
S11311F00E94E40760E081E10E94E40760E082E18C
S11312000E94E40760E083E10E94E40760E084E177
S11312100E94E40761E685E10E94E40764E686E152
S11312200E94E4076DE687E10E94E40769E688E12D
S11312300E94E4076EE689E10E94E40760E08AE127
S11312400E94E40760E08BE10E94E40760E08CE127
S11312500E94E40760E08DE10E94E4070895DF92B4
S1131260EF92FF920F931F93CF93DF9389E090E067
S11312700E941115D82ED92F082F192FCCE00F2E2C
S1131280F3E9EF2EF2E0FF2EF02D8C2F0E94ED07F4
S1131290F80181938F011F928F93FF92EF920E9426
S11312A0E016CF5F0F900F900F900F90C53169F744
S11312B08D2D9D2FDF91CF911F910F91FF90EF9076
S11312C0DF900895DF92EF92FF920F931F93CF93D5
S11312D0DF9389E090E00E941115D82ED92F8AE07F
S11312E090E00E941C170D2D1D2FC5E10F2EFCE967
S11312F0EF2EF2E0FF2EF02D8C2F0E94ED07F80167
S113130081938F011F928F93FF92EF920E94E016B8
S1131310CF5F0F900F900F900F90CE3169F78D2D06
S11313209D2FDF91CF911F910F91FF90EF90DF9050
S11313300895DF92EF92FF920F931F93CF93DF9361
S113134084E090E00E941115D82ED92F082F192F70
S1131350C0E00F2EF9EAEF2EF2E0FF2EF02D8C2FD5
S11313600E94ED07F80181938F011F928F93FF92E2
S1131370EF920E94E016CF5F0F900F900F900F90A6
S1131380C43069F78D2D9D2FDF91CF911F910F915F
S1131390FF90EF90DF900895DF92EF92FF920F930A
S11313A01F93CF93DF9384E090E00E941115D82E11
S11313B0D92F082F192FC4E00F2EF1EBEF2EF2E0F6
S11313C0FF2EF02D8C2F0E94ED07F80181938F01E1
S11313D01F928F93FF92EF920E94E016CF5F0F90BF
S11313E00F900F900F90C83069F78D2D9D2FDF91CE
S11313F0CF911F910F91FF90EF90DF900895DF92AE
S1131400EF92FF920F931F93CF93DF9384E090E0CA
S11314100E941115D82ED92F082F192FC8E00F2E8E
S1131420FAEBEF2EF2E0FF2EF02D8C2F0E94ED0749
S1131430F80181938F011F928F93FF92EF920E9484
S1131440E016CF5F0F900F900F900F90CC3069F79C
S11314508D2D9D2FDF91CF911F910F91FF90EF90D4
S1131460DF9008958F929F92AF92BF92CF92DF92B6
S1131470EF92FF920F931F93CF93DF936C017B0145
S11314805A01FB0101900020E9F731978F01061BF7
S1131490170BEA01812C912C04C089938FEF881AD1
S11314A0980AB701C6010E948216880D991DFC0195
S11314B0E00FF11F8081863281F7F501E80DF91DF7
S11314C01082C501DF91CF911F910F91FF90EF9092
S11314D0DF90CF90BF90AF909F908F900895CF935F
S11314E0DF93CDB7DEB727970FB6F894DEBF0FBEF4
S11314F0CDBF8FE39CE90197F1F700C00000F89499
S11315001092D20710925105109250058EE087B9BF
S11315104198429843980E943613EDEDF7E087E036
S113152091E091838083938382830E949C130E9421
S113153071130E949C130E9471130E94421387E846
S113154080937A0095E39A95F1F700000E94F507DD
S1131550E5E3EA95F1F7000080E00E94ED078F3F94
S113156011F40E94B6080E94620989839B830E9439
S11315702F09FB81FF9329812F939F938F9384ECF1
S113158092E09F938F9385E694E09F938F930E94BC
S113159053170E94FF098C010E94CC099A83898306
S11315A00E949909A80169817A810E94080285E351
S11315B08A95F1F700000E94CF1189830FB6F89441
S11315C0DEBF0FBECDBF8823A9F089EC92E09F93C4
S11315D08F930E94E0161F92F981FF9384ED92E0AD
S11315E09F938F930E94E0160F900F900F900F908F
S11315F00F900F900E94FD0788ED92E00E94231740
S11316000E941608789404EA10E00F2EF4EC6F2E72
S1131610F0E07F2EF02D0F2EF4ED4F2EF0E05F2E34
S1131620F02D0F2EF2EECF2EF0E0DF2EF02D0F2E48
S1131630FFEE2F2EF2E03F2EF02D83E094E00E9487
S1131640F30190E08E319105C0F7FC01EC5CFF4F93
S11316500C94F11440E550E061E08091D2070E94BF
S1131660BA02882351F38091D2070E94F6028FE6D2
S113167093E09F938F930E94F6160F900F90DDCF07
S11316800E9442047C01FF928F933F922F920E940A
S1131690E0160F900F900F900F90E114F10409F4ED
S11316A0C2C5A70162E575E08091D2070E94DB0301
S11316B0892B19F282E595E09F938F9389EF92E04D
S11316C09F938F930E94E01666E073E082E595E0B5
S11316D00E9456045C016CE073E082E595E00E9490
S11316E056047C010F900F900F900F90BB201CF4B8
S11316F099230CF493C565E674E083E193E00E94BA
S11317006D16BC0182E595E00E9456041816190670
S113171024F481E08093640402C0109264048AE19A
S113172093E00E942317BF92AF9282E293E09F93CB
S11317308F930E94E016FF92EF928EE293E09F93C4
S11317408F930E94E0160FB6F894DEBF0FBECDBF94
S1131750FF200CF4A9C280916404813009F0A4C272
S11317606BE373E082E595E00E94560418161906AF
S11317700CF03FC2F8948AE090E00E9411159A831D
S11317808983AC0165E473E082E595E00E94320A46
S11317900E9432169F938F93E7E6F3E0FF93EF9353
S11317A00E94F61649815A8165E473E082E595E06A
S11317B00E94320A0E943216682F80E00E94E407D9
S11317C049815A816BE473E082E595E00E94320A14
S11317D00E9432169F938F938FE593E09F938F938C
S11317E00E94F61649815A816BE473E082E595E024
S11317F00E94320A0E943216682F81E00E94E40798
S113180049815A8161E573E082E595E00E94320ADC
S11318100E9432169F938F9387E593E09F938F9353
S11318200E94F61649815A8161E573E082E595E0EC
S11318300E94320A0E943216682F82E00E94E40756
S113184049815A8167E573E082E595E00E94320A96
S11318500E9432169F938F938FE493E09F938F930C
S11318600E94F61649815A8167E573E082E595E0A6
S11318700E94320A0E943216682F83E00E94E40715
S113188049815A816DE573E082E595E00E94320A50
S11318900E9432169F938F9382E493E09F938F93D9
S11318A00E94F61649815A816DE573E082E595E060
S11318B00E94320A0E943216682F84E00E94E407D4
S11318C049815A8168E673E082E595E00E94320A14
S11318D00E9432169F938F9385E393E09F938F9397
S11318E00E94F61649815A8168E673E082E595E024
S11318F00E94320A0E943216682F85E00E94E40793
S113190049815A8163E773E082E595E00E94320AD7
S11319100E9432169F938F9388E293E09F938F9354
S11319200E94F61649815A8163E773E082E595E0E7
S11319300E94320A0E943216682F86E00E94E40751
S113194049815A816EE773E082E595E00E94320A8C
S11319500E9432169F938F938BE193E09F938F9312
S11319600E94F6160FB6F894DEBF0FBECDBF4981B4
S11319705A816EE773E082E595E00E94320A0E9484
S11319803216682F87E00E94E40749815A8169E88A
S113199073E082E595E00E94320A0E9432169F931A
S11319A08F938EE093E09F938F930E94F616498164
S11319B05A8169E873E082E595E00E94320A0E9448
S11319C03216682F88E00E94E40749815A8164E94D
S11319D073E082E595E00E94320A0E9432169F93DA
S11319E08F9381E093E09F938F930E94F616498131
S11319F05A8164E973E082E595E00E94320A0E940C
S1131A003216682F89E00E94E40749815A816FE900
S1131A1073E082E595E00E94320A0E9432169F9399
S1131A208F9384EF92E09F938F930E94F6164981DF
S1131A305A816FE973E082E595E00E94320A0E94C0
S1131A403216682F8AE00E94E40749815A816AEAC3
S1131A5073E082E595E00E94320A0E9432169F9359
S1131A608F9387EE92E09F938F930E94F61649819D
S1131A705A816AEA73E082E595E00E94320A0E9484
S1131A803216682F8BE00E94E40749815A8165EB86
S1131A9073E082E595E00E94320A9F938F938EED66
S1131AA092E09F938F930E94F61649815A8165EBC9
S1131AB073E082E595E00E94320ABC018AE095E079
S1131AC00E946D160F2EFAE08F2EF5E09F2EF02D5A
S1131AD00FB6F894DEBF0FBECDBF9C828B820F2E53
S1131AE0FCE0BF2EF02DE12CF12CE3EBF0E0FE83C3
S1131AF0ED83BF825401F50161915F018F810E94E2
S1131B00E407FFEFEF1AFF0AEAE0F5E00190002096
S1131B10E9F73197EA50F5402F812F5F2F83EE15B7
S1131B20FF0548F749815A816BEB73E082E595E044
S1131B300E94320A9F938F938FEC92E09F938F932E
S1131B400E94F61649815A816BEB73E082E595E0B9
S1131B500E94320ABC018AE095E00E946D160F9043
S1131B600F900F900F900F2EF5E1BF2EF02DE12C6A
S1131B70F12CF40161914F018B2D0E94E407FFEFDA
S1131B80EF1AFF0AEAE0F5E001900020E9F7319747
S1131B90EA50F540B394EE15FF0558F789819A8110
S1131BA00E94A9150E946209F82EE92E0E942F09AD
S1131BB0EF92FF929F938F9384EC92E09F938F9385
S1131BC085E694E09F938F930E9453170E94FF0928
S1131BD05C010E94CC097C010E949909A501B7010E
S1131BE00E94080278940FB6F894DEBF0FBECDBFF2
S1131BF041C065EC73E082E595E00E945604181636
S1131C00190614F4419A36C060ED73E082E595E05C
S1131C100E9456041816190614F441982BC06CED52
S1131C2073E082E595E00E9456041816190614F430
S1131C30429A20C067EE73E082E595E00E94560464
S1131C401816190614F4429815C063EF73E082E580
S1131C5095E00E9456041816190614F4439A0AC013
S1131C606EEF73E082E595E00E945604181619069B
S1131C700CF4439869E972E082E595E00E945B16F2
S1131C80E2E5F5E001900020E9F73197AF01425514
S1131C90554062E575E08091D2070E941A03809155
S1131CA0D2070E94AC02C9CC64E672E084E195E0FC
S1131CB00E945B16E4E1F5E001900020E9F731971A
S1131CC0AF014451554064E175E08091D2070E9410
S1131CD01A036AE074E082E595E00E94560418163F
S1131CE019063CF46EE074E082E194E00E9471080D
S1131CF095C26BE174E082E595E00E9456041816E3
S1131D0019063CF464E274E088E294E00E947108ED
S1131D1085C261E374E082E595E00E9456041816DA
S1131D2019063CF46BE374E08FE394E00E947108BD
S1131D3075C268E474E082E595E00E9456041816C2
S1131D4019060CF076C080916404813009F071C0EA
S1131D5067E572E082E595E00E945B16319B07C05F
S1131D6066E472E082E595E00E94501606C064E3E2
S1131D7072E082E595E00E945016329B07C063E250
S1131D8072E082E595E00E94501606C061E172E0BF
S1131D9082E595E00E945016339B07C060E072E034
S1131DA082E595E00E94501606C06EEE71E082E571
S1131DB095E00E9450166DED71E082E595E00E9479
S1131DC05016809151058F93809150058F93E1ECCB
S1131DD0F2E0FF93EF938AE095E09F938F930E9444
S1131DE053176AE075E082E595E00E9462166AED99
S1131DF071E082E595E00E94501667ED71E082E59E
S1131E0095E00E945016E2E5F5E001900020E9F724
S1131E103197AF014255554062E575E08091D20794
S1131E200E941A030F900F900F900F900F900F9035
S1131E30F5C166E574E082E595E00E945604181643
S1131E4019060CF0E6C180916404813009F0E1C107
S1131E5069EC71E082E595E00E945B160E949909A5
S1131E607C016FEB71E082E595E00E945016F7016A
S1131E7080811F928F9381EC92E09F938F938AE0ED
S1131E8095E09F938F930E9453176AE075E082E573
S1131E9095E00E9462166CEB71E082E595E00E9489
S1131EA0501663EB71E082E595E00E945016F7014D
S1131EB081811F928F9381EC92E09F938F938AE0AC
S1131EC095E09F938F930E9453176AE075E082E533
S1131ED095E00E94621660EB71E082E595E00E9455
S1131EE0501667EA71E082E595E00E945016F7010A
S1131EF082811F928F9381EC92E09F938F938AE06B
S1131F0095E09F938F930E9453176AE075E082E5F2
S1131F1095E00E94621664EA71E082E595E00E9411
S1131F2050166BE971E082E595E00E945016F701C6
S1131F3083811F928F9381EC92E09F938F938AE029
S1131F4095E09F938F930E9453176AE075E082E5B2
S1131F5095E00E94621668E971E082E595E00E94CE
S1131F6050160E94CC097C016AE871E082E595E094
S1131F700E945016F70180811F928F9381EC92E0AA
S1131F809F938F938AE095E09F938F930E945317BA
S1131F906AE075E082E595E00E94621667E871E008
S1131FA082E595E00E94501669E771E082E595E0CC
S1131FB00E945016F70181811F928F9381EC92E069
S1131FC09F938F938AE095E09F938F930E9453177A
S1131FD00FB6F894DEBF0FBECDBF6AE075E082E5B0
S1131FE095E00E94621666E771E082E595E00E9442
S1131FF0501668E671E082E595E00E945016F701FC
S113200082811F928F9381EC92E09F938F938AE059
S113201095E09F938F930E9453176AE075E082E5E1
S113202095E00E94621665E671E082E595E00E9403
S1132030501667E571E082E595E00E945016F701BD
S113204083811F928F9381EC92E09F938F938AE018
S113205095E09F938F930E9453176AE075E082E5A1
S113206095E00E94621664E571E082E595E00E94C5
S113207050160E94FF097C0166E471E082E595E058
S11320800E945016F70180811F928F9381EC92E099
S11320909F938F938AE095E09F938F930E945317A9
S11320A06AE075E082E595E00E94621663E471E0FF
S11320B082E595E00E94501665E371E082E595E0C3
S11320C00E945016F70181811F928F9381EC92E058
S11320D09F938F938AE095E09F938F930E94531769
S11320E06AE075E082E595E00E94621662E371E0C1
S11320F082E595E00E94501664E271E082E595E085
S11321000E945016F70182811F928F9381EC92E016
S11321109F938F938AE095E09F938F930E94531728
S11321206AE075E082E595E00E94621661E271E082
S113213082E595E00E94501663E171E082E595E046
S11321400E945016F70183811F928F9381EC92E0D5
S11321509F938F938AE095E09F938F930E945317E8
S11321600FB6F894DEBF0FBECDBF6AE075E082E51E
S113217095E00E94621660E171E082E595E00E94BC
S1132180501667E071E082E595E00E9450160E94C7
S11321902F09BC018AE095E00E946D166AE075E0A3
S11321A082E595E00E94621664E071E082E595E0C4
S11321B00E94501667EF70E082E595E00E94501689
S11321C00E946209BC018AE095E00E946D166AE0F3
S11321D075E082E595E00E94621665EF70E082E5A5
S11321E095E00E94501661EF70E082E595E00E9450
S11321F05016E2E5F5E001900020E9F73197AF01D0
S11322004255554062E575E08091D2070E941A0359
S113221005C08091640490E00E94A3088091D207D5
S11322200E94AC020ACA95E39A95F1F7000005CA28
S1132230E5E3EA95F1F7000000CADF92CF920E942D
S1132240F6168091D2070E949E02F5E3FA95F1F703
S113225000000F900F90F1C95F924F920E94F61602
S113226025E32A95F1F700000F900F90E6C97F92BD
S11322706F920E94F6168091D2070E949E0285E317
S11322808A95F1F700000F900F90D7C9E3EBF0E0C7
S1132290FF93EF930E94F6168091D2070E949E024C
S11322A085E38A95F1F700000F900F90C6C91F933C
S11322B00F930E94F6168091D2070E94AC0295E318
S11322C09A95F1F700000F900F90B7C98EBD0DB429
S11322D007FEFDCF8EB50895CF92DF92EF92FF9265
S11322E00F931F93CF93DF93CDB7DEB7A0970FB6AD
S11322F0F894DEBF0FBECDBFF42EE52ED62EC72E2A
S1132300122F5C980E9466118C2D0E9466118D2DEF
S11323100E9466118E2D0E9466118F2D0E946611F7
S1132320812F0E946611002301F1CE0101967C01E8
S11323300150C02ED12C9FEFC91AD90ACE0CDF1C34
S113234087018FEF0E946611F80181938F01EC15CC
S1132350FD05B9F70DC0F70181917F018F3F09F0A9
S1132360182FEC14FD04B9F706C05C9A1FEF03C0E4
S11323705C9A1FEFF0CF8AE090E00E941C17812F37
S1132380A0960FB6F894DEBF0FBECDBFDF91CF91FC
S11323901F910F91FF90EF90DF90CF9008950F93CE
S11323A0CF93DF935C9ACAE0D0E08FEF0E9466116E
S11323B02197D9F7C0E0D0E00AC08FE39CE90197E8
S11323C0F1F700C000002196C034D105B9F008E04F
S11323D025E940E050E0BA0180E40E946C118130AC
S11323E061F73AC08FE39CE90197F1F700C0000060
S11323F02196CA30D10521F48EEF31C0C0E0D0E07F
S113240008E02FEF40E050E0BA0181E40E946C1133
S11324108111E8CF2A97E1F02FEF40E052E060E02D
S113242070E080E50E946C111092D8071092D707D3
S11324301092D3071092D4071092D5071092D607A2
S11324408FE39CE90197F1F700C0000080E007C02A
S11324508EEF05C08FEF03C02A97E1F3CFCFDF9152
S1132460CF910F9108954F925F926F927F92AF92A6
S1132470BF92CF92DF92EF92FF920F931F93CF936D
S1132480DF932B013C017A01B22EA32E5C9881E5E7
S11324900E946611D301C201072E7FE0B695A7956D
S11324A0979587957A95D1F7702D0E946611D3017F
S11324B0C201689416F8B695A795979587951694D2
S11324C0D1F70E946611842D880F0E94661180E066
S11324D00E9466118FEF0E946611C4E6D0E002C02C
S11324E0219771F08FEF0E9466118111F9CFC4E634
S11324F0D0E008C0219731F4E114F10449F43EC05E
S1132500C4E6D0E08FEF0E9466118E3F99F7F4CFB6
S1132510C0E0D0E08FEF0E9466112196EC16FD0614
S1132520C9F70115110579F0CB2CDA2CC0E0D0E005
S11325308FEF0E946611F60181936F012196C017F7
S1132540D107B0F302C0C0E0D0E0CE0DDF1DC1154D
S1132550F2E0DF0740F48FEF0E9466112196C11567
S113256082E0D807C0F38FEF0E9466118FEF0E94BC
S113257066118FEF0E9466115C9A06C00115110561
S113258099F6C0E0D0E0E7CFDF91CF911F910F9192
S1132590FF90EF90DF90CF90BF90AF907F906F90BF
S11325A05F904F9008950F931F938B019C010F2E02
S11325B0F9E03695279517950795FA95D1F7F02DFB
S11325C00093D3071093D4072093D5073093D607ED
S11325D071707093D8076093D7071F910F91089576
S11325E0EF92FF920F931F93CF93C82FE82EF12CF5
S11325F04091D7075091D8076091D3077091D407C1
S11326008091D5079091D607870127E734E00E948F
S113261033120091D7071091D8070E0D1F1D011515
S113262082E0180729F01093D8070093D70717C042
S11326301092D8071092D7078091D3079091D407AE
S1132640A091D507B091D6070196A11DB11D809325
S1132650D3079093D407A093D507B093D6078C2FB4
S1132660CF911F910F91FF90EF9008951092C500A4
S113267080E18093C40088E18093C10086E0809368
S1132680C20008958091C000882344F4A6ECB0E011
S1132690E0ECF0E08C9180818823E4F30895CF93FB
S11326A0C82F8A3019F48DE00E944F13E0ECF0E05B
S11326B0808185FFFDCFC093C60080E090E0CF917C
S11326C00895CF93BC01E0ECF0E090819923ECF7FE
S11326D0C091C6008C2F0E944F138C2F90E0CF9195
S11326E00895CF93DF93CDEDD7E06A817B818BE1B1
S11326F090E00E94A4166A817B818BE590E00E94A1
S1132700A4166A817B8188E490E00E94A4166A8101
S11327107B818BE190E00E94A4166A817B818BE52A
S113272090E00E94A4166A817B818AE490E00E9472
S1132730A416DF91CF910895CF93DF93CDEDD7E029
S11327406A817B818BE190E00E94A4166A817B817F
S11327508BE590E00E94A4166A817B8180E390E07F
S11327600E94A4166A817B818DE690E00E94A416E3
S1132770DF91CF9108950E94CF130C94B7140E9457
S1132780B01458F00E94A91440F029F45F3F29F0D6
S11327900C94A01451110C94EB140C94A6140E94E4
S11327A0C81468F39923B1F3552391F3951B550B82
S11327B0BB27AA2762177307840738F09F5F5F4F10
S11327C0220F331F441FAA1FA9F335D00E2E3AF04F
S11327D0E0E832D091505040E695001CCAF72BD067
S11327E0FE2F29D0660F771F881FBB1F26173707B8
S11327F04807AB07B0E809F0BB0B802DBF01FF27EA
S113280093585F4F3AF09E3F510578F00C94A01412
S11328100C94EB145F3FE4F3983ED4F386957795DC
S11328206795B795F7959F5FC9F7880F911D9695A2
S1132830879597F90895E1E0660F771F881FBB1FFE
S1132840621773078407BA0720F0621B730B840BAB
S1132850BA0BEE1F88F7E09508950E94341468942B
S1132860B1110C94EB1408950E94D01488F09F5772
S113287098F0B92F9927B751B0F0E1F0660F771FA0
S1132880881F991F1AF0BA95C9F714C0B13091F096
S11328900E94EA14B1E008950C94EA14672F782F8B
S11328A08827B85F39F0B93FCCF38695779567955B
S11328B0B395D9F73EF490958095709561957F4FC7
S11328C08F4F9F4F0895E89409C097FB3EF490956D
S11328D08095709561957F4F8F4F9F4F9923A9F0F5
S11328E0F92F96E9BB279395F69587957795679584
S11328F0B795F111F8CFFAF4BB0F11F460FF1BC0C8
S11329006F5F7F4F8F4F9F4F16C0882311F096E95A
S113291011C0772321F09EE8872F762F05C0662308
S113292071F096E8862F70E060E02AF09A95660FC1
S1132930771F881FDAF7880F9695879597F908957A
S113294097F99F6780E870E060E008959FEF80EC5E
S1132950089500240A941616170618060906089501
S113296000240A9412161306140605060895092E67
S11329700394000C11F4882352F0BB0F40F4BF2BD6
S113298011F460FF04C06F5F7F4F8F4F9F4F089516
S113299057FD9058440F551F59F05F3F71F047950C
S11329A0880F97FB991F61F09F3F79F087950895F1
S11329B0121613061406551FF2CF4695F1DF08C010
S11329C0161617061806991FF1CF8695710561052D
S11329D008940895E894BB2766277727CB0197F9D5
S11329E00895EE0FFF1F0590F491E02D0994A29F26
S11329F0B001B39FC001A39F700D811D1124911DCF
S1132A00B29F700D811D1124911D08950E94F71429
S1132A10A59F900DB49F900DA49F800D911D11242E
S1132A2008950F931F93CF93DF938230910510F491
S1132A3082E090E0E091DB07F091DC0720E030E0F9
S1132A40A0E0B0E0309719F14081518102811381F7
S1132A5048175907C8F08417950769F4109731F09F
S1132A6012960C93129713961C9327C00093DB07BE
S1132A701093DC0722C02115310519F042175307C2
S1132A8018F49A01BD01EF01DF01F801DBCF211534
S1132A903105F9F0281B390B2430310580F48A8183
S1132AA09B816115710521F0FB019383828304C02E
S1132AB09093DC078093DB07FE01329644C0FE014D
S1132AC0E20FF31F819391932250310939832883B4
S1132AD03AC02091D9073091DA07232B41F4209191
S1132AE00201309103013093DA072093D907209132
S1132AF00001309101012115310541F42DB73EB794
S1132B004091040150910501241B350BE091D90734
S1132B10F091DA07E217F307A0F42E1B3F0B2817F6
S1132B20390778F0AC014E5F5F4F2417350748F042
S1132B304E0F5F1F5093DA074093D9078193919307
S1132B4002C0E0E0F0E0CF01DF91CF911F910F913F
S1132B500895CF93DF93009709F481C0FC01329765
S1132B6013821282A091DB07B091DC07109781F4E5
S1132B7020813181820F931F2091D9073091DA0788
S1132B802817390751F5F093DA07E093D90767C09E
S1132B90ED0120E030E0CE17DF0740F44A815B818D
S1132BA09E0141155105F1F0EA01F5CFD383C283AB
S1132BB040815181840F951FC817D90759F4888122
S1132BC09981840F951F0296918380838A819B81CA
S1132BD0938382832115310529F4F093DC07E09374
S1132BE0DB073DC0E901FB83EA8349915991C40F96
S1132BF0D51FEC17FD0761F480819181840F951F27
S1132C000296E90199838883828193819B838A83D5
S1132C10E0E0F0E012968D919C911397009719F0E3
S1132C20FD01DC01F7CF8D919C9111979D012E5FE1
S1132C303F4F820F931F2091D9073091DA0728174D
S1132C40390769F4309729F41092DC071092DB07F6
S1132C5002C013821282B093DA07A093D907DF91DE
S1132C60CF910895FC0188279927E8942191203277
S1132C70E9F3293010F02E30C8F32B3241F02D3215
S1132C8039F4689404C00E949C16820F911D21910E
S1132C9020532A30C0F31EF4909581959F4F0895D8
S1132CA0FB01DC010D900020E9F7119705900D92CE
S1132CB00020E1F70895FB01DC0105900D9200204E
S1132CC0E1F70895FB01DC010D900020E9F711976D
S1132CD001900D920020E1F70895FB01DC010190C1
S1132CE00D920020E1F70895FB01DC0141505040B2
S1132CF030F08D910190801919F40020B9F7881BE8
S1132D00990B0895FB0151915523A9F0BF01DC01F2
S1132D104D9145174111E1F759F4CD01019000207F
S1132D2049F04D9140154111C9F3FB014111EFCF19
S1132D3081E090E0019708957AE0979F902D879F16
S1132D40802D910D112408950F931F93CF93DF933A
S1132D50FB01238121FD03C08FEF9FEF2CC022FFD5
S1132D6016C046815781248135814217530744F4A4
S1132D70A081B1819D012F5F3F4F318320838C93CC
S1132D80268137812F5F3F4F3783268314C08B0101
S1132D90EC01FB010084F185E02D0995892BE1F616
S1132DA0D80116968D919C911797019617969C932E
S1132DB08E931697CE01DF91CF911F910F910895B5
S1132DC0A0E0B0E0E6EEF6E10C94DA19AE014B5F58
S1132DD05F4FFA0161917191AF018091DF0790918A
S1132DE0E0070E947517E2E00C94F619A0E0B0E049
S1132DF0ECEFF6E10C94D819AE01495F5F4FDA01AC
S1132E006D917D91AD010DED17E0F8018281938103
S1132E10DC0113962C911397286013962C930E942F
S1132E207517D8011296ED91FC9113972381277F92
S1132E302383E4E00C94F4196091DF077091E007B8
S1132E400E94A41608950F931F93CF93DF93E091EC
S1132E50DF07F091E007238121FF1BC08C01D0E044
S1132E60C0E0F80181918F016091DF077091E00764
S1132E70DB011896ED91FC911997882331F009959F
S1132E80892B79F3DFEFCFEFECCF8AE00995892B1B
S1132E9019F08FEF9FEF02C08D2F9C2FDF91CF9100
S1132EA01F910F910895AEE0B0E0E9E5F7E10C94CD
S1132EB0D8190D891E8986E08C831A8309838FEFC4
S1132EC09FE79E838D83AE01475E5F4F6F89788D48
S1132ED0CE0101960E947517EF81F885E00FF11F6E
S1132EE010822E96E4E00C94F419ABE0B0E0EBE72A
S1132EF0F7E10C94CA196C017B018A01FC01178269
S1132F001682838181FFCCC1CE0101963C01F6017A
S1132F109381F70193FD859193FF81917F0188232C
S1132F2009F4BAC1853239F493FD859193FF8191F7
S1132F307F01853229F4B60190E00E94A416E7CF00
S1132F40912C212C312CFFE1F315D8F08B3279F040
S1132F5038F4803279F08332A1F4232D20611DC02E
S1132F608D3261F0803369F4232D216016C0832DE6
S1132F708260382EE32DE4603E2E2AC0F32DF860E3
S1132F801DC037FC2DC020ED280F2A3040F08E32B2
S1132F90B9F436FC81C1232D2064322E19C036FECB
S1132FA006C08AE0989E200D1124922E11C0EAE0FA
S1132FB02E9E200D1124222EF32DF0623F2E08C0E8
S1132FC08C3621F4832D8068382E02C0883641F473
S1132FD0F70193FD859193FF81917F018111B3CF17
S1132FE0982F9F7D9554933028F40C5F1F4F9FE3D7
S1132FF099830DC0833631F0833771F0833509F03E
S113300059C021C0F801808189830E5F1F4F882435
S11330108394912C530113C02801F2E04F0E511CEC
S1133020F801A080B18036FE03C0692D70E002C0B3
S11330306FEF7FEFC5010E9461194C018201F32DEE
S1133040FF773F2E16C0280122E0420E511CF801E2
S1133050A080B18036FE03C0692D70E002C06FEF1E
S11330607FEFC5010E9456194C01F32DF0683F2EE5
S1133070820133FC1BC0822D90E088169906B0F4BF
S1133080B60180E290E00E94A4162A94F4CFF501E0
S113309037FC859137FE81915F01B60190E00E9473
S11330A0A41621102A9421E0821A91088114910413
S11330B071F7E8C0843611F0893641F5F80137FE1E
S11330C007C060817181828193810C5F1F4F08C0AA
S11330D060817181072E000C880B990B0E5F1F4FC6
S11330E0F32DFF763F2E97FF09C09095809570953C
S11330F061957F4F8F4F9F4FF0683F2E2AE030E05D
S1133100A3010E946C19882E861845C0853731F4B6
S1133110232D2F7EB22E2AE030E025C0932D997FF7
S1133120B92E8F36C1F018F4883579F0B5C08037E0
S113313019F0883721F0B0C0E92FE061BE2EB4FE4B
S11331400DC0FB2DF460BF2E09C034FE0AC0292F28
S11331502660B22E06C028E030E005C020E130E051
S113316002C020E132E0F801B7FE07C0608171813E
S1133170828193810C5F1F4F06C06081718180E062
S113318090E00E5F1F4FA3010E946C19882E8618D1
S1133190FB2DFF773F2E36FE0DC0232D2E7FA22E52
S11331A0891458F434FE0BC032FC09C0832D8E7E82
S11331B0A82E05C0B82CA32C03C0B82C01C0B92C70
S11331C0A4FE0FC0FE01E80DF11D8081803321F4BF
S11331D09A2D997EA92E09C0A2FE06C0B394B39479
S11331E004C08A2D867809F0B394A3FC11C0A0FE14
S11331F006C0B21488F4280C922C9B180EC0B2148A
S113320060F4B60180E290E00E94A416B394F7CF74
S1133210B21418F42B1802C0982C212CA4FE10C050
S1133220B60180E390E00E94A416A2FE17C0A1FCA0
S113323003C088E790E002C088E590E0B6010CC0C6
S11332408A2D867859F0A1FE02C08BE201C080E28B
S1133250A7FC8DE2B60190E00E94A416891438F40C
S1133260B60180E390E00E94A4169A94F7CF8A9462
S1133270F301E80DF11D8081B60190E00E94A416CF
S11332808110F5CF222009F442CEB60180E290E00D
S11332900E94A4162A94F6CFF6018681978102C073
S11332A08FEF9FEF2B96E2E10C94E619FC01059059
S11332B0615070400110D8F7809590958E0F9F1F34
S11332C00895FC016150704001900110D8F7809579
S11332D090958E0F9F1F0895FA01AA27283051F167
S11332E0203181F1E8946F936E7F6E5F7F4F8F4F33
S11332F09F4FAF4FB1E03ED0B4E03CD0670F781F92
S1133300891F9A1FA11D680F791F8A1F911DA11D76
S11333106A0F711D811D911DA11D20D009F46894AF
S11333203F912AE0269F11243019305D3193DEF657
S1133330CF010895462F4770405D4193B3E00FD00D
S1133340C9F7F6CF462F4F70405D4A3318F0495DF8
S113335031FD4052419302D0A9F7EACFB4E0A695DB
S11333609795879577956795BA95C9F700976105FD
S1133370710508959B01AC010A2E06945795479553
S113338037952795BA95C9F7620F731F841F951F48
S1133390A01D08952F923F924F925F926F927F9259
S11333A08F929F92AF92BF92CF92DF92EF92FF9251
S11333B00F931F93CF93DF93CDB7DEB7CA1BDB0BFD
S11333C00FB6F894DEBF0FBECDBF09942A883988A2
S11333D048885F846E847D848C849B84AA84B984A9
S11333E0C884DF80EE80FD800C811B81AA81B981B5
S11333F0CE0FD11D0FB6F894DEBF0FBECDBFED01C9
S10934000895F894FFCFCB
S11334060000E30720000100000003000000004F55
S11334161361130000504152544954494F4E2054ED
S113342641424C4520425546464552002558000A1D
S1133436537461727420536563746F72202523304C
S1133446385800424F4F5420425546464552005381
S11334566563746F722073697A652025640A005364
S11334666563746F72735F7065725F636C75737492
S113347665722025640A0072657365727665645FF9
S1133486736563746F72732025640A006E6E756DBE
S11334966265725F6F665F666174732025640A00F5
S11334A66E726F6F745F6469725F656E747269655C
S11334B6732025640A006661745F73697A655F73B5
S11334C66563746F72732025640A00464154207341
S11334D6746172742061742025233038582C20724C
S11334E66F6F742064697220617420252330386CF0
S11334F6582C206461746120617420252330385867
S11335060A004E65787420636C75737465722025A1
S1133516640A00547279696E6720746F206F70654F
S11335266E2066696C65205B25732E25735D0A0023
S1133536466F756E642066696C65205B252E38734C
S11335462E252E33735D0A0046696C6520666F75F9
S11335566E6420617420636C7573746572202564CF
S1133566210A0046696C65206E6F7420666F756E5D
S1133576643A205B25732E25735D210A0048544D59
S1133586004C4F47494E20202000494E44455820C0
S1133596202000557365722025630A0050617373F9
S11335A6776F72642025630A000A20495020256437
S11335B6000A20475457202564000A204D41534BE6
S11335C62025640025732573000D0A534420657273
S11335D6723A2000252358005745422053657276D7
S11335E66572204465627567204D6F64650A0053F1
S11335F6697A653A2025640A00436F6E74656E74B1
S11336063A0A25730A00474554202F00504F535455
S1133616202F006B657969643D0052657175657389
S113362674006765746964783A2025640A00706FCB
S113363673746964783A2025640A00534554434FE9
S11336464E4649470069705F313D0069705F323DFF
S11336560069705F333D0069705F343D00676174D3
S1133666657761795F313D00676174657761795F7C
S1133676323D00676174657761795F333D00676148
S113368674657761795F343D007375626D61736B40
S11336965F313D007375626D61736B5F323D00731C
S11336A675626D61736B5F333D007375626D617333
S11336B66B5F343D00757365723D0070617373779B
S11336C66F72643D0073797374656D313D4F4E00BE
S11336D673797374656D313D4F464600737973741F
S11336E6656D323D4F4E0073797374656D323D4F8F
S11336F646460073797374656D333D4F4E00737996
S11337067374656D333D4F4646004156522E4A50FA
S11337164700415652202020202000424F4F545348
S11337265452502E43535300424F4F545354525005
S1133736004A51554552592E4A53004A5320004ACD
S11337465155455259202000535953544154555309
S11337562E4A534F4E0053455454494E47532E4A0E
S1073766534F4E006B
S9030000FC
